:107E0000F89429C00902220001010080320904000F
:107E100000010300000009211101000122150007E3
:107E2000058103400005000049C000004FC0120159
:107E3000100100000040EB0367200100000000017A
:107E400006DCFF09FBA1010902150025FF75089654
:107E500082009102C000222404B724BE03FF02C0A6
:107E60000C940000689401E012E005BF15BFC7ED57
:107E7000D0E009810E76098311E018830068098338
:107E800014E012BF0F7D098310E119BD12E119BD85
:107E900019B510FFFDCF18E01B87298600E909837B
:107EA00078940EF4FECF09850160098708E11CE093
:107EB0000093600010936000A895FFCF2A8601E030
:107EC0000C8B02E30E8B08E0098F1895BB27A2E10B
:107ED00008E00A8C0D920A95E1F727FD38C02030A2
:107EE00021F02F77213231F007C0353031F03930B1
:107EF00049F002C0393041F05FC04C8765D040681E
:107F00004C875AC061D058C064D070D0EA8CFA8CCB
:107F1000AFEFAE15AF0511F4E89415C0F70113E00B
:107F200069D000E4AB8DAA2B11F459D05FD00A8C34
:107F30001A8C11E05FD032960A95A1F7F70115E08F
:107F400059D011E157D04BD04DD046D035C02E7FFF
:107F5000203811F4363009F02FC0513039F052304A
:107F600049F0513259F0523269F026C0EEE2FEE794
:107F700002E10BC0E4E0FEE702E207C0E6E1FEE753
:107F800009E003C0E0E4FEE705E123D0801708F034
:107F9000802F198913FD17C012FF10FF05C005912E
:107FA0000A8F8A95E1F718D0198912FF13FD01C0D5
:107FB000FBCF13FD08C013D0098903FF04C009D00B
:107FC0000C8900620C8B189504D00CD005D00AD017
:107FD000089517EF198B08951EEF198B08951BEF65
:107FE000198B0895198910FFFDCF0895198912FF83
:107FF000FDCF089517BFE89517B710FDFDCF089581
:0400000300007E007B
:00000001FF
